{
  "contractName": "Lottery",
  "abi": [
    {
      "inputs": [
        {
          "internalType": "uint64",
          "name": "_subscriptionId",
          "type": "uint64"
        },
        {
          "internalType": "address",
          "name": "_cordinatorAddress",
          "type": "address"
        },
        {
          "internalType": "bytes32",
          "name": "_keyHash",
          "type": "bytes32"
        },
        {
          "internalType": "string",
          "name": "_name",
          "type": "string"
        },
        {
          "internalType": "uint256",
          "name": "_ticketPrice",
          "type": "uint256"
        },
        {
          "internalType": "uint256",
          "name": "_fee",
          "type": "uint256"
        }
      ],
      "stateMutability": "nonpayable",
      "type": "constructor"
    },
    {
      "inputs": [
        {
          "internalType": "address",
          "name": "have",
          "type": "address"
        },
        {
          "internalType": "address",
          "name": "want",
          "type": "address"
        }
      ],
      "name": "OnlyCoordinatorCanFulfill",
      "type": "error"
    },
    {
      "anonymous": false,
      "inputs": [
        {
          "indexed": true,
          "internalType": "address",
          "name": "owner",
          "type": "address"
        },
        {
          "indexed": false,
          "internalType": "string",
          "name": "name",
          "type": "string"
        },
        {
          "indexed": false,
          "internalType": "uint256",
          "name": "ticketPrize",
          "type": "uint256"
        },
        {
          "indexed": false,
          "internalType": "uint256",
          "name": "fee",
          "type": "uint256"
        }
      ],
      "name": "ChangedProperties",
      "type": "event"
    },
    {
      "anonymous": false,
      "inputs": [
        {
          "indexed": true,
          "internalType": "address",
          "name": "winner",
          "type": "address"
        },
        {
          "indexed": false,
          "internalType": "uint256",
          "name": "totalPrize",
          "type": "uint256"
        },
        {
          "indexed": false,
          "internalType": "uint256",
          "name": "fee",
          "type": "uint256"
        }
      ],
      "name": "ClaimedPrize",
      "type": "event"
    },
    {
      "anonymous": false,
      "inputs": [
        {
          "indexed": false,
          "internalType": "address",
          "name": "owner",
          "type": "address"
        },
        {
          "indexed": false,
          "internalType": "uint256",
          "name": "totalValue",
          "type": "uint256"
        },
        {
          "indexed": false,
          "internalType": "uint256",
          "name": "ticketAmount",
          "type": "uint256"
        }
      ],
      "name": "LotteryFinalized",
      "type": "event"
    },
    {
      "anonymous": false,
      "inputs": [
        {
          "indexed": true,
          "internalType": "address",
          "name": "previousOwner",
          "type": "address"
        },
        {
          "indexed": true,
          "internalType": "address",
          "name": "newOwner",
          "type": "address"
        }
      ],
      "name": "OwnershipTransferred",
      "type": "event"
    },
    {
      "anonymous": false,
      "inputs": [
        {
          "indexed": false,
          "internalType": "uint256",
          "name": "requestId",
          "type": "uint256"
        },
        {
          "indexed": false,
          "internalType": "uint256[]",
          "name": "randomWords",
          "type": "uint256[]"
        }
      ],
      "name": "RequestFulfilled",
      "type": "event"
    },
    {
      "anonymous": false,
      "inputs": [
        {
          "indexed": false,
          "internalType": "uint256",
          "name": "requestId",
          "type": "uint256"
        },
        {
          "indexed": false,
          "internalType": "uint32",
          "name": "numWords",
          "type": "uint32"
        }
      ],
      "name": "RequestSent",
      "type": "event"
    },
    {
      "anonymous": false,
      "inputs": [
        {
          "indexed": true,
          "internalType": "address",
          "name": "buyer",
          "type": "address"
        },
        {
          "indexed": false,
          "internalType": "uint256",
          "name": "price",
          "type": "uint256"
        },
        {
          "indexed": false,
          "internalType": "uint256",
          "name": "ticketNumber",
          "type": "uint256"
        }
      ],
      "name": "TicketBought",
      "type": "event"
    },
    {
      "inputs": [],
      "name": "fee",
      "outputs": [
        {
          "internalType": "uint256",
          "name": "",
          "type": "uint256"
        }
      ],
      "stateMutability": "view",
      "type": "function",
      "constant": true
    },
    {
      "inputs": [
        {
          "internalType": "uint256",
          "name": "_requestId",
          "type": "uint256"
        }
      ],
      "name": "getRequestStatus",
      "outputs": [
        {
          "internalType": "bool",
          "name": "fulfilled",
          "type": "bool"
        },
        {
          "internalType": "uint256[]",
          "name": "randomWords",
          "type": "uint256[]"
        }
      ],
      "stateMutability": "view",
      "type": "function",
      "constant": true
    },
    {
      "inputs": [],
      "name": "lastRequestId",
      "outputs": [
        {
          "internalType": "uint256",
          "name": "",
          "type": "uint256"
        }
      ],
      "stateMutability": "view",
      "type": "function",
      "constant": true
    },
    {
      "inputs": [],
      "name": "lottery",
      "outputs": [
        {
          "internalType": "string",
          "name": "name",
          "type": "string"
        },
        {
          "internalType": "uint256",
          "name": "ticketPrice",
          "type": "uint256"
        },
        {
          "components": [
            {
              "internalType": "uint256",
              "name": "_value",
              "type": "uint256"
            }
          ],
          "internalType": "struct Counters.Counter",
          "name": "ticketsCount",
          "type": "tuple"
        },
        {
          "internalType": "uint256",
          "name": "balance",
          "type": "uint256"
        },
        {
          "internalType": "bool",
          "name": "finalized",
          "type": "bool"
        },
        {
          "internalType": "uint256",
          "name": "indexChainLink",
          "type": "uint256"
        },
        {
          "internalType": "address",
          "name": "winner",
          "type": "address"
        },
        {
          "internalType": "bool",
          "name": "claimed",
          "type": "bool"
        }
      ],
      "stateMutability": "view",
      "type": "function",
      "constant": true
    },
    {
      "inputs": [],
      "name": "owner",
      "outputs": [
        {
          "internalType": "address",
          "name": "",
          "type": "address"
        }
      ],
      "stateMutability": "view",
      "type": "function",
      "constant": true
    },
    {
      "inputs": [
        {
          "internalType": "uint256",
          "name": "requestId",
          "type": "uint256"
        },
        {
          "internalType": "uint256[]",
          "name": "randomWords",
          "type": "uint256[]"
        }
      ],
      "name": "rawFulfillRandomWords",
      "outputs": [],
      "stateMutability": "nonpayable",
      "type": "function"
    },
    {
      "inputs": [],
      "name": "renounceOwnership",
      "outputs": [],
      "stateMutability": "nonpayable",
      "type": "function"
    },
    {
      "inputs": [
        {
          "internalType": "uint256",
          "name": "",
          "type": "uint256"
        }
      ],
      "name": "requestIds",
      "outputs": [
        {
          "internalType": "uint256",
          "name": "",
          "type": "uint256"
        }
      ],
      "stateMutability": "view",
      "type": "function",
      "constant": true
    },
    {
      "inputs": [
        {
          "internalType": "uint256",
          "name": "",
          "type": "uint256"
        }
      ],
      "name": "s_requests",
      "outputs": [
        {
          "internalType": "bool",
          "name": "fulfilled",
          "type": "bool"
        },
        {
          "internalType": "bool",
          "name": "exists",
          "type": "bool"
        }
      ],
      "stateMutability": "view",
      "type": "function",
      "constant": true
    },
    {
      "inputs": [
        {
          "internalType": "address",
          "name": "newOwner",
          "type": "address"
        }
      ],
      "name": "transferOwnership",
      "outputs": [],
      "stateMutability": "nonpayable",
      "type": "function"
    },
    {
      "inputs": [],
      "name": "buyTicket",
      "outputs": [],
      "stateMutability": "payable",
      "type": "function",
      "payable": true
    },
    {
      "inputs": [],
      "name": "finalizeLottery",
      "outputs": [],
      "stateMutability": "nonpayable",
      "type": "function"
    },
    {
      "inputs": [],
      "name": "claim",
      "outputs": [],
      "stateMutability": "nonpayable",
      "type": "function"
    },
    {
      "inputs": [
        {
          "internalType": "string",
          "name": "_name",
          "type": "string"
        },
        {
          "internalType": "uint256",
          "name": "_ticketPrice",
          "type": "uint256"
        },
        {
          "internalType": "uint256",
          "name": "_fee",
          "type": "uint256"
        }
      ],
      "name": "setProperties",
      "outputs": [],
      "stateMutability": "nonpayable",
      "type": "function"
    },
    {
      "inputs": [],
      "name": "getAllBalance",
      "outputs": [],
      "stateMutability": "nonpayable",
      "type": "function"
    }
  ],
  "bytecode": "0x60a06040526207a120600660006101000a81548163ffffffff021916908363ffffffff1602179055506003600660046101000a81548161ffff021916908361ffff1602179055503480156200005357600080fd5b50604051620036ed380380620036ed8339818101604052810190620000799190620004ff565b858585818073ffffffffffffffffffffffffffffffffffffffff1660808173ffffffffffffffffffffffffffffffffffffffff168152505050620000d2620000c66200018060201b60201c565b6200018860201b60201c565b81600260006101000a81548173ffffffffffffffffffffffffffffffffffffffff021916908373ffffffffffffffffffffffffffffffffffffffff16021790555082600260146101000a81548167ffffffffffffffff021916908367ffffffffffffffff16021790555080600581905550505050600160078190555082600b6000019081620001629190620007fb565b5081600b6001018190555080601281905550505050505050620008e2565b600033905090565b60008060009054906101000a900473ffffffffffffffffffffffffffffffffffffffff169050816000806101000a81548173ffffffffffffffffffffffffffffffffffffffff021916908373ffffffffffffffffffffffffffffffffffffffff1602179055508173ffffffffffffffffffffffffffffffffffffffff168173ffffffffffffffffffffffffffffffffffffffff167f8be0079c531659141344cd1fd0a4f28419497f9722a3daafe3b4186f6b6457e060405160405180910390a35050565b6000604051905090565b600080fd5b600080fd5b600067ffffffffffffffff82169050919050565b6200027f8162000260565b81146200028b57600080fd5b50565b6000815190506200029f8162000274565b92915050565b600073ffffffffffffffffffffffffffffffffffffffff82169050919050565b6000620002d282620002a5565b9050919050565b620002e481620002c5565b8114620002f057600080fd5b50565b6000815190506200030481620002d9565b92915050565b6000819050919050565b6200031f816200030a565b81146200032b57600080fd5b50565b6000815190506200033f8162000314565b92915050565b600080fd5b600080fd5b6000601f19601f8301169050919050565b7f4e487b7100000000000000000000000000000000000000000000000000000000600052604160045260246000fd5b6200039a826200034f565b810181811067ffffffffffffffff82111715620003bc57620003bb62000360565b5b80604052505050565b6000620003d16200024c565b9050620003df82826200038f565b919050565b600067ffffffffffffffff82111562000402576200040162000360565b5b6200040d826200034f565b9050602081019050919050565b60005b838110156200043a5780820151818401526020810190506200041d565b60008484015250505050565b60006200045d6200045784620003e4565b620003c5565b9050828152602081018484840111156200047c576200047b6200034a565b5b620004898482856200041a565b509392505050565b600082601f830112620004a957620004a862000345565b5b8151620004bb84826020860162000446565b91505092915050565b6000819050919050565b620004d981620004c4565b8114620004e557600080fd5b50565b600081519050620004f981620004ce565b92915050565b60008060008060008060c087890312156200051f576200051e62000256565b5b60006200052f89828a016200028e565b96505060206200054289828a01620002f3565b95505060406200055589828a016200032e565b945050606087015167ffffffffffffffff8111156200057957620005786200025b565b5b6200058789828a0162000491565b93505060806200059a89828a01620004e8565b92505060a0620005ad89828a01620004e8565b9150509295509295509295565b600081519050919050565b7f4e487b7100000000000000000000000000000000000000000000000000000000600052602260045260246000fd5b600060028204905060018216806200060d57607f821691505b602082108103620006235762000622620005c5565b5b50919050565b60008190508160005260206000209050919050565b60006020601f8301049050919050565b600082821b905092915050565b6000600883026200068d7fffffffffffffffffffffffffffffffffffffffffffffffffffffffffffffffff826200064e565b6200069986836200064e565b95508019841693508086168417925050509392505050565b6000819050919050565b6000620006dc620006d6620006d084620004c4565b620006b1565b620004c4565b9050919050565b6000819050919050565b620006f883620006bb565b620007106200070782620006e3565b8484546200065b565b825550505050565b600090565b6200072762000718565b62000734818484620006ed565b505050565b5b818110156200075c57620007506000826200071d565b6001810190506200073a565b5050565b601f821115620007ab57620007758162000629565b62000780846200063e565b8101602085101562000790578190505b620007a86200079f856200063e565b83018262000739565b50505b505050565b600082821c905092915050565b6000620007d060001984600802620007b0565b1980831691505092915050565b6000620007eb8383620007bd565b9150826002028217905092915050565b6200080682620005ba565b67ffffffffffffffff81111562000822576200082162000360565b5b6200082e8254620005f4565b6200083b82828562000760565b600060209050601f8311600181146200087357600084156200085e578287015190505b6200086a8582620007dd565b865550620008da565b601f198416620008838662000629565b60005b82811015620008ad5784890151825560018201915060208501945060208101905062000886565b86831015620008cd5784890151620008c9601f891682620007bd565b8355505b6001600288020188555050505b505050505050565b608051612de8620009056000396000818161033c01526103900152612de86000f3fe6080604052600436106100e85760003560e01c8063a168fa891161008a578063eb9969a811610059578063eb9969a8146102c5578063edca914c146102dc578063f2fde38b146102e6578063fc2a88c31461030f576100e8565b8063a168fa89146101ec578063ba13a5721461022a578063d8a4676f1461025c578063ddca3f431461029a576100e8565b80635e202d23116100c65780635e202d2314610144578063715018a61461016d5780638796ba8c146101845780638da5cb5b146101c1576100e8565b80631fe543e3146100ed578063456c2892146101165780634e71d92d1461012d575b600080fd5b3480156100f957600080fd5b50610114600480360381019061010f9190611a86565b61033a565b005b34801561012257600080fd5b5061012b6103fa565b005b34801561013957600080fd5b506101426104d4565b005b34801561015057600080fd5b5061016b60048036038101906101669190611b97565b610a4d565b005b34801561017957600080fd5b50610182610ad0565b005b34801561019057600080fd5b506101ab60048036038101906101a69190611c06565b610ae4565b6040516101b89190611c42565b60405180910390f35b3480156101cd57600080fd5b506101d6610b08565b6040516101e39190611c9e565b60405180910390f35b3480156101f857600080fd5b50610213600480360381019061020e9190611c06565b610b31565b604051610221929190611cd4565b60405180910390f35b34801561023657600080fd5b5061023f610b6f565b604051610253989796959493929190611da7565b60405180910390f35b34801561026857600080fd5b50610283600480360381019061027e9190611c06565b610c7b565b604051610291929190611edb565b60405180910390f35b3480156102a657600080fd5b506102af610da6565b6040516102bc9190611c42565b60405180910390f35b3480156102d157600080fd5b506102da610dac565b005b6102e4610dfd565b005b3480156102f257600080fd5b5061030d60048036038101906103089190611f37565b611128565b005b34801561031b57600080fd5b506103246111ab565b6040516103319190611c42565b60405180910390f35b7f000000000000000000000000000000000000000000000000000000000000000073ffffffffffffffffffffffffffffffffffffffff163373ffffffffffffffffffffffffffffffffffffffff16146103ec57337f00000000000000000000000000000000000000000000000000000000000000006040517f1cf993f40000000000000000000000000000000000000000000000000000000081526004016103e3929190611f64565b60405180910390fd5b6103f682826111b1565b5050565b61040261129b565b600b60040160009054906101000a900460ff1615610455576040517f08c379a000000000000000000000000000000000000000000000000000000000815260040161044c90611fd9565b60405180910390fd5b6001600b60040160006101000a81548160ff02191690831515021790555061047d6001611319565b600b600501819055507f9337fa876371ba7a2ae0a3fd96612bed9a9baaff955d10f3c0168d544f7a053733600b600301546104bb600b600201611550565b6040516104ca93929190611ff9565b60405180910390a1565b6104dc61155e565b600b60060160149054906101000a900460ff161561052f576040517f08c379a0000000000000000000000000000000000000000000000000000000008152600401610526906120a2565b60405180910390fd5b600b60040160009054906101000a900460ff16610581576040517f08c379a000000000000000000000000000000000000000000000000000000000815260040161057890612134565b60405180910390fd5b600073ffffffffffffffffffffffffffffffffffffffff16600b60060160009054906101000a900473ffffffffffffffffffffffffffffffffffffffff1673ffffffffffffffffffffffffffffffffffffffff1603610615576040517f08c379a000000000000000000000000000000000000000000000000000000000815260040161060c906121c6565b60405180910390fd5b6000610621600a611550565b90506008600082815260200190815260200160002060003373ffffffffffffffffffffffffffffffffffffffff1673ffffffffffffffffffffffffffffffffffffffff16815260200190815260200160002060000160009054906101000a900460ff166106c3576040517f08c379a00000000000000000000000000000000000000000000000000000000081526004016106ba90612258565b60405180910390fd5b6008600082815260200190815260200160002060003373ffffffffffffffffffffffffffffffffffffffff1673ffffffffffffffffffffffffffffffffffffffff16815260200190815260200160002060000160019054906101000a900460ff1615610764576040517f08c379a000000000000000000000000000000000000000000000000000000000815260040161075b906122ea565b60405180910390fd5b3373ffffffffffffffffffffffffffffffffffffffff16600b60060160009054906101000a900473ffffffffffffffffffffffffffffffffffffffff1673ffffffffffffffffffffffffffffffffffffffff16146107f7576040517f08c379a00000000000000000000000000000000000000000000000000000000081526004016107ee90612356565b60405180910390fd5b6001600b60060160146101000a81548160ff02191690831515021790555060006008600083815260200190815260200160002060003373ffffffffffffffffffffffffffffffffffffffff1673ffffffffffffffffffffffffffffffffffffffff16815260200190815260200160002060000160006101000a81548160ff02191690831515021790555060016008600083815260200190815260200160002060003373ffffffffffffffffffffffffffffffffffffffff1673ffffffffffffffffffffffffffffffffffffffff16815260200190815260200160002060000160016101000a81548160ff02191690831515021790555060006108fd600b600301546115ad565b9050600081600b6003015461091291906123a5565b905061091c6115d0565b61095b576040517f08c379a000000000000000000000000000000000000000000000000000000000815260040161095290612425565b60405180910390fd5b610963610b08565b73ffffffffffffffffffffffffffffffffffffffff166108fc839081150290604051600060405180830381858888f193505050501580156109a8573d6000803e3d6000fd5b503373ffffffffffffffffffffffffffffffffffffffff166108fc829081150290604051600060405180830381858888f193505050501580156109ef573d6000803e3d6000fd5b503373ffffffffffffffffffffffffffffffffffffffff167f958da08b85b84cbd2625af831fdd0b864642d0b1da0401a911437355aa9812558284604051610a38929190612445565b60405180910390a2505050610a4b611687565b565b610a5561129b565b82600b6000019081610a67919061267a565b5081600b60010181905550806012819055503373ffffffffffffffffffffffffffffffffffffffff167fecb1eec63d4ebf3b14551490524517a630719c73afe6fa65e9d5ee88990d2c1e848484604051610ac39392919061274c565b60405180910390a2505050565b610ad861129b565b610ae26000611691565b565b60038181548110610af457600080fd5b906000526020600020016000915090505481565b60008060009054906101000a900473ffffffffffffffffffffffffffffffffffffffff16905090565b60016020528060005260406000206000915090508060000160009054906101000a900460ff16908060000160019054906101000a900460ff16905082565b600b806000018054610b809061249d565b80601f0160208091040260200160405190810160405280929190818152602001828054610bac9061249d565b8015610bf95780601f10610bce57610100808354040283529160200191610bf9565b820191906000526020600020905b815481529060010190602001808311610bdc57829003601f168201915b50505050509080600101549080600201604051806020016040529081600082015481525050908060030154908060040160009054906101000a900460ff16908060050154908060060160009054906101000a900473ffffffffffffffffffffffffffffffffffffffff16908060060160149054906101000a900460ff16905088565b600060606001600084815260200190815260200160002060000160019054906101000a900460ff16610ce2576040517f08c379a0000000000000000000000000000000000000000000000000000000008152600401610cd9906127d6565b60405180910390fd5b6000600160008581526020019081526020016000206040518060600160405290816000820160009054906101000a900460ff161515151581526020016000820160019054906101000a900460ff1615151515815260200160018201805480602002602001604051908101604052809291908181526020018280548015610d8757602002820191906000526020600020905b815481526020019060010190808311610d73575b5050505050815250509050806000015181604001519250925050915091565b60125481565b610db461129b565b3373ffffffffffffffffffffffffffffffffffffffff166108fc479081150290604051600060405180830381858888f19350505050158015610dfa573d6000803e3d6000fd5b50565b610e0561155e565b600b60040160009054906101000a900460ff1615610e58576040517f08c379a0000000000000000000000000000000000000000000000000000000008152600401610e4f90612868565b60405180910390fd5b34600b6001015414610e9f576040517f08c379a0000000000000000000000000000000000000000000000000000000008152600401610e96906128fa565b60405180910390fd5b60086000610ead600a611550565b815260200190815260200160002060003373ffffffffffffffffffffffffffffffffffffffff1673ffffffffffffffffffffffffffffffffffffffff16815260200190815260200160002060000160009054906101000a900460ff1615610f49576040517f08c379a0000000000000000000000000000000000000000000000000000000008152600401610f409061298c565b60405180910390fd5b6000610f55600a611550565b90506000610f66600b600201611550565b9050610f75600b600201611755565b60016008600084815260200190815260200160002060003373ffffffffffffffffffffffffffffffffffffffff1673ffffffffffffffffffffffffffffffffffffffff16815260200190815260200160002060000160006101000a81548160ff02191690831515021790555060006008600084815260200190815260200160002060003373ffffffffffffffffffffffffffffffffffffffff1673ffffffffffffffffffffffffffffffffffffffff16815260200190815260200160002060000160016101000a81548160ff0219169083151502179055503360096000848152602001908152602001600020600083815260200190815260200160002060006101000a81548173ffffffffffffffffffffffffffffffffffffffff021916908373ffffffffffffffffffffffffffffffffffffffff16021790555034600b60030160008282546110c591906129ac565b925050819055503373ffffffffffffffffffffffffffffffffffffffff167f97fac0ce6558f4accbb4696915809c0ef7023ffe7ba9454e94d49fb652aae1d53484604051611114929190612445565b60405180910390a25050611126611687565b565b61113061129b565b600073ffffffffffffffffffffffffffffffffffffffff168173ffffffffffffffffffffffffffffffffffffffff160361119f576040517f08c379a000000000000000000000000000000000000000000000000000000000815260040161119690612a52565b60405180910390fd5b6111a881611691565b50565b60045481565b6111bb828261176b565b60006111c7600a611550565b905060006111d8600b600201611550565b9050600b6005015484036112955760096000838152602001908152602001600020600082856000815181106112105761120f612a72565b5b60200260200101516112229190612ad0565b815260200190815260200160002060009054906101000a900473ffffffffffffffffffffffffffffffffffffffff16600b60060160006101000a81548173ffffffffffffffffffffffffffffffffffffffff021916908373ffffffffffffffffffffffffffffffffffffffff1602179055505b50505050565b6112a3611864565b73ffffffffffffffffffffffffffffffffffffffff166112c1610b08565b73ffffffffffffffffffffffffffffffffffffffff1614611317576040517f08c379a000000000000000000000000000000000000000000000000000000000815260040161130e90612b4d565b60405180910390fd5b565b600061132361129b565b600260009054906101000a900473ffffffffffffffffffffffffffffffffffffffff1673ffffffffffffffffffffffffffffffffffffffff16635d3b1d30600554600260149054906101000a900467ffffffffffffffff16600660049054906101000a900461ffff16600660009054906101000a900463ffffffff16876040518663ffffffff1660e01b81526004016113c0959493929190612be5565b6020604051808303816000875af11580156113df573d6000803e3d6000fd5b505050506040513d601f19601f820116820180604052508101906114039190612c4d565b90506040518060600160405280600015158152602001600115158152602001600067ffffffffffffffff81111561143d5761143c611943565b5b60405190808252806020026020018201604052801561146b5781602001602082028036833780820191505090505b508152506001600083815260200190815260200160002060008201518160000160006101000a81548160ff02191690831515021790555060208201518160000160016101000a81548160ff02191690831515021790555060408201518160010190805190602001906114de929190611879565b509050506003819080600181540180825580915050600190039060005260206000200160009091909190915055806004819055507fcc58b13ad3eab50626c6a6300b1d139cd6ebb1688a7cced9461c2f7e762665ee8183604051611543929190612c7a565b60405180910390a1919050565b600081600001549050919050565b6002600754036115a3576040517f08c379a000000000000000000000000000000000000000000000000000000000815260040161159a90612cef565b60405180910390fd5b6002600781905550565b60006064601254836115bf9190612d0f565b6115c99190612d51565b9050919050565b60006115dc600a611755565b6000600b600301819055506000600b60060160146101000a81548160ff0219169083151502179055506000600b60040160006101000a81548160ff0219169083151502179055506000600b600501819055506000600b60060160006101000a81548173ffffffffffffffffffffffffffffffffffffffff021916908373ffffffffffffffffffffffffffffffffffffffff160217905550611680600b60020161186c565b6001905090565b6001600781905550565b60008060009054906101000a900473ffffffffffffffffffffffffffffffffffffffff169050816000806101000a81548173ffffffffffffffffffffffffffffffffffffffff021916908373ffffffffffffffffffffffffffffffffffffffff1602179055508173ffffffffffffffffffffffffffffffffffffffff168173ffffffffffffffffffffffffffffffffffffffff167f8be0079c531659141344cd1fd0a4f28419497f9722a3daafe3b4186f6b6457e060405160405180910390a35050565b6001816000016000828254019250508190555050565b6001600083815260200190815260200160002060000160019054906101000a900460ff166117ce576040517f08c379a00000000000000000000000000000000000000000000000000000000081526004016117c5906127d6565b60405180910390fd5b600180600084815260200190815260200160002060000160006101000a81548160ff02191690831515021790555080600160008481526020019081526020016000206001019080519060200190611826929190611879565b507ffe2e2d779dba245964d4e3ef9b994be63856fd568bf7d3ca9e224755cb1bd54d8282604051611858929190612d82565b60405180910390a15050565b600033905090565b6000816000018190555050565b8280548282559060005260206000209081019282156118b5579160200282015b828111156118b4578251825591602001919060010190611899565b5b5090506118c291906118c6565b5090565b5b808211156118df5760008160009055506001016118c7565b5090565b6000604051905090565b600080fd5b600080fd5b6000819050919050565b61190a816118f7565b811461191557600080fd5b50565b60008135905061192781611901565b92915050565b600080fd5b6000601f19601f8301169050919050565b7f4e487b7100000000000000000000000000000000000000000000000000000000600052604160045260246000fd5b61197b82611932565b810181811067ffffffffffffffff8211171561199a57611999611943565b5b80604052505050565b60006119ad6118e3565b90506119b98282611972565b919050565b600067ffffffffffffffff8211156119d9576119d8611943565b5b602082029050602081019050919050565b600080fd5b6000611a026119fd846119be565b6119a3565b90508083825260208201905060208402830185811115611a2557611a246119ea565b5b835b81811015611a4e5780611a3a8882611918565b845260208401935050602081019050611a27565b5050509392505050565b600082601f830112611a6d57611a6c61192d565b5b8135611a7d8482602086016119ef565b91505092915050565b60008060408385031215611a9d57611a9c6118ed565b5b6000611aab85828601611918565b925050602083013567ffffffffffffffff811115611acc57611acb6118f2565b5b611ad885828601611a58565b9150509250929050565b600080fd5b600067ffffffffffffffff821115611b0257611b01611943565b5b611b0b82611932565b9050602081019050919050565b82818337600083830152505050565b6000611b3a611b3584611ae7565b6119a3565b905082815260208101848484011115611b5657611b55611ae2565b5b611b61848285611b18565b509392505050565b600082601f830112611b7e57611b7d61192d565b5b8135611b8e848260208601611b27565b91505092915050565b600080600060608486031215611bb057611baf6118ed565b5b600084013567ffffffffffffffff811115611bce57611bcd6118f2565b5b611bda86828701611b69565b9350506020611beb86828701611918565b9250506040611bfc86828701611918565b9150509250925092565b600060208284031215611c1c57611c1b6118ed565b5b6000611c2a84828501611918565b91505092915050565b611c3c816118f7565b82525050565b6000602082019050611c576000830184611c33565b92915050565b600073ffffffffffffffffffffffffffffffffffffffff82169050919050565b6000611c8882611c5d565b9050919050565b611c9881611c7d565b82525050565b6000602082019050611cb36000830184611c8f565b92915050565b60008115159050919050565b611cce81611cb9565b82525050565b6000604082019050611ce96000830185611cc5565b611cf66020830184611cc5565b9392505050565b600081519050919050565b600082825260208201905092915050565b60005b83811015611d37578082015181840152602081019050611d1c565b60008484015250505050565b6000611d4e82611cfd565b611d588185611d08565b9350611d68818560208601611d19565b611d7181611932565b840191505092915050565b611d85816118f7565b82525050565b602082016000820151611da16000850182611d7c565b50505050565b6000610100820190508181036000830152611dc2818b611d43565b9050611dd1602083018a611c33565b611dde6040830189611d8b565b611deb6060830188611c33565b611df86080830187611cc5565b611e0560a0830186611c33565b611e1260c0830185611c8f565b611e1f60e0830184611cc5565b9998505050505050505050565b600081519050919050565b600082825260208201905092915050565b6000819050602082019050919050565b6000611e648383611d7c565b60208301905092915050565b6000602082019050919050565b6000611e8882611e2c565b611e928185611e37565b9350611e9d83611e48565b8060005b83811015611ece578151611eb58882611e58565b9750611ec083611e70565b925050600181019050611ea1565b5085935050505092915050565b6000604082019050611ef06000830185611cc5565b8181036020830152611f028184611e7d565b90509392505050565b611f1481611c7d565b8114611f1f57600080fd5b50565b600081359050611f3181611f0b565b92915050565b600060208284031215611f4d57611f4c6118ed565b5b6000611f5b84828501611f22565b91505092915050565b6000604082019050611f796000830185611c8f565b611f866020830184611c8f565b9392505050565b7f4c6f747465727920616c72656164792066696e616c697a65642e000000000000600082015250565b6000611fc3601a83611d08565b9150611fce82611f8d565b602082019050919050565b60006020820190508181036000830152611ff281611fb6565b9050919050565b600060608201905061200e6000830186611c8f565b61201b6020830185611c33565b6120286040830184611c33565b949350505050565b7f5468652077696e6e657220616c726561647920636c61696d656420697473207060008201527f72697a652e000000000000000000000000000000000000000000000000000000602082015250565b600061208c602583611d08565b915061209782612030565b604082019050919050565b600060208201905081810360008301526120bb8161207f565b9050919050565b7f54686973206c6f74746572792069736e27742066696e616c697a65642079657460008201527f2e00000000000000000000000000000000000000000000000000000000000000602082015250565b600061211e602183611d08565b9150612129826120c2565b604082019050919050565b6000602082019050818103600083015261214d81612111565b9050919050565b7f54686973206c6f7474657279206469646e27742067657420612077696e6e657260008201527f207965742e000000000000000000000000000000000000000000000000000000602082015250565b60006121b0602583611d08565b91506121bb82612154565b604082019050919050565b600060208201905081810360008301526121df816121a3565b9050919050565b7f596f7520646f6e74206861766520616e79207469636b657420746f20636c616960008201527f6d20686572652e00000000000000000000000000000000000000000000000000602082015250565b6000612242602783611d08565b915061224d826121e6565b604082019050919050565b6000602082019050818103600083015261227181612235565b9050919050565b7f596f75206861766520616c7265616420636c61696d656420796f75722070726960008201527f7a652e0000000000000000000000000000000000000000000000000000000000602082015250565b60006122d4602383611d08565b91506122df82612278565b604082019050919050565b60006020820190508181036000830152612303816122c7565b9050919050565b7f596f75277265206e6f74207468652077696e6e65722e00000000000000000000600082015250565b6000612340601683611d08565b915061234b8261230a565b602082019050919050565b6000602082019050818103600083015261236f81612333565b9050919050565b7f4e487b7100000000000000000000000000000000000000000000000000000000600052601160045260246000fd5b60006123b0826118f7565b91506123bb836118f7565b92508282039050818111156123d3576123d2612376565b5b92915050565b7f4c6f7474657279206e6565647320746f20626520726573657465642e00000000600082015250565b600061240f601c83611d08565b915061241a826123d9565b602082019050919050565b6000602082019050818103600083015261243e81612402565b9050919050565b600060408201905061245a6000830185611c33565b6124676020830184611c33565b9392505050565b7f4e487b7100000000000000000000000000000000000000000000000000000000600052602260045260246000fd5b600060028204905060018216806124b557607f821691505b6020821081036124c8576124c761246e565b5b50919050565b60008190508160005260206000209050919050565b60006020601f8301049050919050565b600082821b905092915050565b6000600883026125307fffffffffffffffffffffffffffffffffffffffffffffffffffffffffffffffff826124f3565b61253a86836124f3565b95508019841693508086168417925050509392505050565b6000819050919050565b600061257761257261256d846118f7565b612552565b6118f7565b9050919050565b6000819050919050565b6125918361255c565b6125a561259d8261257e565b848454612500565b825550505050565b600090565b6125ba6125ad565b6125c5818484612588565b505050565b5b818110156125e9576125de6000826125b2565b6001810190506125cb565b5050565b601f82111561262e576125ff816124ce565b612608846124e3565b81016020851015612617578190505b61262b612623856124e3565b8301826125ca565b50505b505050565b600082821c905092915050565b600061265160001984600802612633565b1980831691505092915050565b600061266a8383612640565b9150826002028217905092915050565b61268382611cfd565b67ffffffffffffffff81111561269c5761269b611943565b5b6126a6825461249d565b6126b18282856125ed565b600060209050601f8311600181146126e457600084156126d2578287015190505b6126dc858261265e565b865550612744565b601f1984166126f2866124ce565b60005b8281101561271a578489015182556001820191506020850194506020810190506126f5565b868310156127375784890151612733601f891682612640565b8355505b6001600288020188555050505b505050505050565b600060608201905081810360008301526127668186611d43565b90506127756020830185611c33565b6127826040830184611c33565b949350505050565b7f72657175657374206e6f7420666f756e64000000000000000000000000000000600082015250565b60006127c0601183611d08565b91506127cb8261278a565b602082019050919050565b600060208201905081810360008301526127ef816127b3565b9050919050565b7f54686973206c6f74746572792068617320616c72656164792066696e616c697a60008201527f65642c207761697420666f7220726573756c7473210000000000000000000000602082015250565b6000612852603583611d08565b915061285d826127f6565b604082019050919050565b6000602082019050818103600083015261288181612845565b9050919050565b7f596f75206e65656420746f20706179207468652065786163746c79207469636b60008201527f65742070726963652e0000000000000000000000000000000000000000000000602082015250565b60006128e4602983611d08565b91506128ef82612888565b604082019050919050565b60006020820190508181036000830152612913816128d7565b9050919050565b7f54686973206164647265737320616c7265616479206275792061207469636b6560008201527f742e000000000000000000000000000000000000000000000000000000000000602082015250565b6000612976602283611d08565b91506129818261291a565b604082019050919050565b600060208201905081810360008301526129a581612969565b9050919050565b60006129b7826118f7565b91506129c2836118f7565b92508282019050808211156129da576129d9612376565b5b92915050565b7f4f776e61626c653a206e6577206f776e657220697320746865207a65726f206160008201527f6464726573730000000000000000000000000000000000000000000000000000602082015250565b6000612a3c602683611d08565b9150612a47826129e0565b604082019050919050565b60006020820190508181036000830152612a6b81612a2f565b9050919050565b7f4e487b7100000000000000000000000000000000000000000000000000000000600052603260045260246000fd5b7f4e487b7100000000000000000000000000000000000000000000000000000000600052601260045260246000fd5b6000612adb826118f7565b9150612ae6836118f7565b925082612af657612af5612aa1565b5b828206905092915050565b7f4f776e61626c653a2063616c6c6572206973206e6f7420746865206f776e6572600082015250565b6000612b37602083611d08565b9150612b4282612b01565b602082019050919050565b60006020820190508181036000830152612b6681612b2a565b9050919050565b6000819050919050565b612b8081612b6d565b82525050565b600067ffffffffffffffff82169050919050565b612ba381612b86565b82525050565b600061ffff82169050919050565b612bc081612ba9565b82525050565b600063ffffffff82169050919050565b612bdf81612bc6565b82525050565b600060a082019050612bfa6000830188612b77565b612c076020830187612b9a565b612c146040830186612bb7565b612c216060830185612bd6565b612c2e6080830184612bd6565b9695505050505050565b600081519050612c4781611901565b92915050565b600060208284031215612c6357612c626118ed565b5b6000612c7184828501612c38565b91505092915050565b6000604082019050612c8f6000830185611c33565b612c9c6020830184612bd6565b9392505050565b7f5265656e7472616e637947756172643a207265656e7472616e742063616c6c00600082015250565b6000612cd9601f83611d08565b9150612ce482612ca3565b602082019050919050565b60006020820190508181036000830152612d0881612ccc565b9050919050565b6000612d1a826118f7565b9150612d25836118f7565b9250828202612d33816118f7565b91508282048414831517612d4a57612d49612376565b5b5092915050565b6000612d5c826118f7565b9150612d67836118f7565b925082612d7757612d76612aa1565b5b828204905092915050565b6000604082019050612d976000830185611c33565b8181036020830152612da98184611e7d565b9050939250505056fea2646970667358221220763992c0427630d825cadc18a33aada4bfce7487988826e27dfe38fc8174fc4764736f6c63430008110033",
  "immutableReferences": {
    "10": [
      {
        "length": 32,
        "start": 828
      },
      {
        "length": 32,
        "start": 912
      }
    ]
  },
  "source": "// SPDX-License-Identifier: MIT\r\npragma solidity ^0.8.17;\r\n\r\nimport \"@chainlink/contracts/src/v0.8/interfaces/VRFCoordinatorV2Interface.sol\";\r\nimport \"@chainlink/contracts/src/v0.8/VRFConsumerBaseV2.sol\";\r\n\r\nimport \"@openzeppelin/contracts/access/Ownable.sol\";\r\nimport \"@openzeppelin/contracts/utils/Counters.sol\";\r\nimport \"@openzeppelin/contracts/security/ReentrancyGuard.sol\";\r\n\r\nimport \"./VRFV2Consumer.sol\";\r\n\r\ncontract Lottery is Ownable, VRFV2Consumer, ReentrancyGuard {\r\n    using Counters for Counters.Counter;\r\n\r\n    struct User {\r\n        bool hasTicket;\r\n        bool claimed;\r\n    }\r\n\r\n    struct LotteryStruct {\r\n        string name;\r\n        uint256 ticketPrice;\r\n        Counters.Counter ticketsCount;\r\n        uint256 balance;\r\n        bool finalized;\r\n        uint256 indexChainLink;\r\n        address winner;\r\n        bool claimed;\r\n    }\r\n\r\n    mapping(uint256 => mapping(address => User)) ticketOwners;\r\n    mapping(uint256 => mapping(uint256 => address)) tickets;\r\n\r\n    Counters.Counter private lotteryId;\r\n    LotteryStruct public lottery;\r\n    uint256 public fee;\r\n\r\n    event TicketBought(address indexed buyer, uint256 price, uint256 ticketNumber);\r\n    event LotteryFinalized(address owner, uint256 totalValue, uint256 ticketAmount);\r\n    event ClaimedPrize(address indexed winner, uint256 totalPrize, uint256 fee);\r\n    event ChangedProperties(address indexed owner, string name, uint256 ticketPrize, uint256 fee);\r\n\r\n    constructor(\r\n        uint64 _subscriptionId,\r\n        address _cordinatorAddress,\r\n        bytes32 _keyHash,\r\n        string memory _name,\r\n        uint256 _ticketPrice,\r\n        uint256 _fee\r\n    ) VRFV2Consumer(_subscriptionId, _cordinatorAddress, _keyHash) {\r\n        lottery.name = _name;\r\n        lottery.ticketPrice = _ticketPrice;\r\n        fee = _fee;\r\n    }\r\n\r\n    function buyTicket() external payable nonReentrant {\r\n        require(\r\n            !lottery.finalized,\r\n            \"This lottery has already finalized, wait for results!\"\r\n        );\r\n        require(\r\n            lottery.ticketPrice == msg.value,\r\n            \"You need to pay the exactly ticket price.\"\r\n        );\r\n        require(\r\n            !ticketOwners[lotteryId.current()][msg.sender].hasTicket,\r\n            \"This address already buy a ticket.\"\r\n        );\r\n\r\n        uint256 currentLottery = lotteryId.current();\r\n        uint256 currentLotteryPosition = lottery.ticketsCount.current();\r\n        lottery.ticketsCount.increment();\r\n\r\n        ticketOwners[currentLottery][msg.sender].hasTicket = true;\r\n        ticketOwners[currentLottery][msg.sender].claimed = false;\r\n        tickets[currentLottery][currentLotteryPosition] = msg.sender;\r\n\r\n        lottery.balance += msg.value;\r\n\r\n        emit TicketBought(msg.sender, msg.value, currentLottery);\r\n    }\r\n\r\n    function finalizeLottery() external onlyOwner {\r\n        require(!lottery.finalized, \"Lottery already finalized.\");\r\n        lottery.finalized = true;\r\n\r\n        lottery.indexChainLink = requestRandomWords(1);\r\n        emit LotteryFinalized(msg.sender, lottery.balance, lottery.ticketsCount.current());\r\n    }\r\n\r\n    function fulfillRandomWords(\r\n        uint256 _requestId,\r\n        uint256[] memory _randomWords\r\n    ) internal override {\r\n        super.fulfillRandomWords(_requestId, _randomWords);\r\n        uint256 currentLottery = lotteryId.current();\r\n        uint256 currentLotteryPosition = lottery.ticketsCount.current();\r\n        if (_requestId == lottery.indexChainLink) {\r\n            lottery.winner = tickets[currentLottery][\r\n                _randomWords[0] % currentLotteryPosition\r\n            ];\r\n        }\r\n    }\r\n\r\n    function claim() external nonReentrant {\r\n        require(!lottery.claimed, \"The winner already claimed its prize.\");\r\n        require(lottery.finalized, \"This lottery isn't finalized yet.\");\r\n        require(\r\n            lottery.winner != address(0),\r\n            \"This lottery didn't get a winner yet.\"\r\n        );\r\n\r\n        uint256 currentLottery = lotteryId.current();\r\n\r\n        require(\r\n            ticketOwners[currentLottery][msg.sender].hasTicket,\r\n            \"You dont have any ticket to claim here.\"\r\n        );\r\n        require(\r\n            !ticketOwners[currentLottery][msg.sender].claimed,\r\n            \"You have alread claimed your prize.\"\r\n        );\r\n        require(lottery.winner == msg.sender, \"You're not the winner.\");\r\n        lottery.claimed = true;\r\n        ticketOwners[currentLottery][msg.sender].hasTicket = false;\r\n        ticketOwners[currentLottery][msg.sender].claimed = true;\r\n\r\n        uint256 _feeAmount = _calcFee(lottery.balance);\r\n        uint256 prize = lottery.balance - _feeAmount;\r\n\r\n        require(resetLottery(), \"Lottery needs to be reseted.\");\r\n\r\n        payable(owner()).transfer(_feeAmount);\r\n        payable(msg.sender).transfer(prize);\r\n        emit ClaimedPrize(msg.sender, prize, _feeAmount);\r\n    }\r\n\r\n    function resetLottery() private returns (bool) {\r\n        // Change the pointer to the next position.\r\n        lotteryId.increment();\r\n\r\n        // clean up variables\r\n        lottery.balance = 0;\r\n        lottery.claimed = false;\r\n        lottery.finalized = false;\r\n        lottery.indexChainLink = 0;\r\n        lottery.winner = address(0);\r\n        \r\n        lottery.ticketsCount.reset();\r\n\r\n        return true;       \r\n    }\r\n\r\n    function _calcFee(uint256 amount) private view returns (uint256) {\r\n        return (amount * fee) / 100;\r\n    }\r\n\r\n    function setProperties(string memory _name, uint256 _ticketPrice, uint256 _fee)\r\n        external\r\n        onlyOwner\r\n    {\r\n        lottery.name = _name;\r\n        lottery.ticketPrice = _ticketPrice;\r\n        fee = _fee;\r\n\r\n        emit ChangedProperties(msg.sender, _name, _ticketPrice, _fee);\r\n    }\r\n\r\n    // Only if we have some problem to use this \r\n    function getAllBalance() external onlyOwner {\r\n       payable(msg.sender).transfer(address(this).balance);\r\n    }\r\n}\r\n",
  "sourcePath": "C:\\lucas_blockchain\\Projetos\\scamados_loteria\\Onchain\\contracts\\Lottery.sol",
  "compiler": {
    "name": "solc",
    "version": "0.8.17+commit.8df45f5f.Emscripten.clang"
  },
  "schemaVersion": "3.4.11",
  "updatedAt": "2023-02-27T23:14:32.586Z",
  "networkType": "ethereum",
  "devdoc": {
    "kind": "dev",
    "methods": {
      "owner()": {
        "details": "Returns the address of the current owner."
      },
      "renounceOwnership()": {
        "details": "Leaves the contract without owner. It will not be possible to call `onlyOwner` functions anymore. Can only be called by the current owner. NOTE: Renouncing ownership will leave the contract without an owner, thereby removing any functionality that is only available to the owner."
      },
      "transferOwnership(address)": {
        "details": "Transfers ownership of the contract to a new account (`newOwner`). Can only be called by the current owner."
      }
    },
    "version": 1
  },
  "userdoc": {
    "kind": "user",
    "methods": {},
    "version": 1
  }
}