{
  "contractName": "Lottery",
  "abi": [
    {
      "inputs": [
        {
          "internalType": "uint64",
          "name": "_subscriptionId",
          "type": "uint64"
        },
        {
          "internalType": "address",
          "name": "_cordinatorAddress",
          "type": "address"
        },
        {
          "internalType": "bytes32",
          "name": "_keyHash",
          "type": "bytes32"
        },
        {
          "internalType": "string",
          "name": "_name",
          "type": "string"
        },
        {
          "internalType": "uint256",
          "name": "_ticketPrice",
          "type": "uint256"
        },
        {
          "internalType": "uint256",
          "name": "_fee",
          "type": "uint256"
        }
      ],
      "stateMutability": "nonpayable",
      "type": "constructor"
    },
    {
      "inputs": [
        {
          "internalType": "address",
          "name": "have",
          "type": "address"
        },
        {
          "internalType": "address",
          "name": "want",
          "type": "address"
        }
      ],
      "name": "OnlyCoordinatorCanFulfill",
      "type": "error"
    },
    {
      "anonymous": false,
      "inputs": [
        {
          "indexed": true,
          "internalType": "address",
          "name": "previousOwner",
          "type": "address"
        },
        {
          "indexed": true,
          "internalType": "address",
          "name": "newOwner",
          "type": "address"
        }
      ],
      "name": "OwnershipTransferred",
      "type": "event"
    },
    {
      "anonymous": false,
      "inputs": [
        {
          "indexed": false,
          "internalType": "uint256",
          "name": "requestId",
          "type": "uint256"
        },
        {
          "indexed": false,
          "internalType": "uint256[]",
          "name": "randomWords",
          "type": "uint256[]"
        }
      ],
      "name": "RequestFulfilled",
      "type": "event"
    },
    {
      "anonymous": false,
      "inputs": [
        {
          "indexed": false,
          "internalType": "uint256",
          "name": "requestId",
          "type": "uint256"
        },
        {
          "indexed": false,
          "internalType": "uint32",
          "name": "numWords",
          "type": "uint32"
        }
      ],
      "name": "RequestSent",
      "type": "event"
    },
    {
      "inputs": [],
      "name": "fee",
      "outputs": [
        {
          "internalType": "uint256",
          "name": "",
          "type": "uint256"
        }
      ],
      "stateMutability": "view",
      "type": "function",
      "constant": true
    },
    {
      "inputs": [
        {
          "internalType": "uint256",
          "name": "_requestId",
          "type": "uint256"
        }
      ],
      "name": "getRequestStatus",
      "outputs": [
        {
          "internalType": "bool",
          "name": "fulfilled",
          "type": "bool"
        },
        {
          "internalType": "uint256[]",
          "name": "randomWords",
          "type": "uint256[]"
        }
      ],
      "stateMutability": "view",
      "type": "function",
      "constant": true
    },
    {
      "inputs": [],
      "name": "lastRequestId",
      "outputs": [
        {
          "internalType": "uint256",
          "name": "",
          "type": "uint256"
        }
      ],
      "stateMutability": "view",
      "type": "function",
      "constant": true
    },
    {
      "inputs": [],
      "name": "lottery",
      "outputs": [
        {
          "internalType": "string",
          "name": "name",
          "type": "string"
        },
        {
          "internalType": "uint256",
          "name": "ticketPrice",
          "type": "uint256"
        },
        {
          "components": [
            {
              "internalType": "uint256",
              "name": "_value",
              "type": "uint256"
            }
          ],
          "internalType": "struct Counters.Counter",
          "name": "ticketsCount",
          "type": "tuple"
        },
        {
          "internalType": "uint256",
          "name": "balance",
          "type": "uint256"
        },
        {
          "internalType": "bool",
          "name": "finalized",
          "type": "bool"
        },
        {
          "internalType": "uint256",
          "name": "indexChainLink",
          "type": "uint256"
        },
        {
          "internalType": "address",
          "name": "winner",
          "type": "address"
        },
        {
          "internalType": "bool",
          "name": "claimed",
          "type": "bool"
        }
      ],
      "stateMutability": "view",
      "type": "function",
      "constant": true
    },
    {
      "inputs": [],
      "name": "owner",
      "outputs": [
        {
          "internalType": "address",
          "name": "",
          "type": "address"
        }
      ],
      "stateMutability": "view",
      "type": "function",
      "constant": true
    },
    {
      "inputs": [
        {
          "internalType": "uint256",
          "name": "requestId",
          "type": "uint256"
        },
        {
          "internalType": "uint256[]",
          "name": "randomWords",
          "type": "uint256[]"
        }
      ],
      "name": "rawFulfillRandomWords",
      "outputs": [],
      "stateMutability": "nonpayable",
      "type": "function"
    },
    {
      "inputs": [],
      "name": "renounceOwnership",
      "outputs": [],
      "stateMutability": "nonpayable",
      "type": "function"
    },
    {
      "inputs": [
        {
          "internalType": "uint256",
          "name": "",
          "type": "uint256"
        }
      ],
      "name": "requestIds",
      "outputs": [
        {
          "internalType": "uint256",
          "name": "",
          "type": "uint256"
        }
      ],
      "stateMutability": "view",
      "type": "function",
      "constant": true
    },
    {
      "inputs": [
        {
          "internalType": "uint256",
          "name": "",
          "type": "uint256"
        }
      ],
      "name": "s_requests",
      "outputs": [
        {
          "internalType": "bool",
          "name": "fulfilled",
          "type": "bool"
        },
        {
          "internalType": "bool",
          "name": "exists",
          "type": "bool"
        }
      ],
      "stateMutability": "view",
      "type": "function",
      "constant": true
    },
    {
      "inputs": [
        {
          "internalType": "address",
          "name": "newOwner",
          "type": "address"
        }
      ],
      "name": "transferOwnership",
      "outputs": [],
      "stateMutability": "nonpayable",
      "type": "function"
    },
    {
      "inputs": [],
      "name": "buyTicket",
      "outputs": [],
      "stateMutability": "payable",
      "type": "function",
      "payable": true
    },
    {
      "inputs": [],
      "name": "finalizeLottery",
      "outputs": [],
      "stateMutability": "nonpayable",
      "type": "function"
    },
    {
      "inputs": [],
      "name": "claim",
      "outputs": [],
      "stateMutability": "nonpayable",
      "type": "function"
    },
    {
      "inputs": [
        {
          "internalType": "string",
          "name": "_name",
          "type": "string"
        },
        {
          "internalType": "uint256",
          "name": "_ticketPrice",
          "type": "uint256"
        },
        {
          "internalType": "uint256",
          "name": "_fee",
          "type": "uint256"
        }
      ],
      "name": "setProperties",
      "outputs": [],
      "stateMutability": "nonpayable",
      "type": "function"
    }
  ],
  "bytecode": "0x60a06040526207a120600660006101000a81548163ffffffff021916908363ffffffff1602179055506003600660046101000a81548161ffff021916908361ffff1602179055503480156200005357600080fd5b506040516200349e3803806200349e8339818101604052810190620000799190620004ff565b858585818073ffffffffffffffffffffffffffffffffffffffff1660808173ffffffffffffffffffffffffffffffffffffffff168152505050620000d2620000c66200018060201b60201c565b6200018860201b60201c565b81600260006101000a81548173ffffffffffffffffffffffffffffffffffffffff021916908373ffffffffffffffffffffffffffffffffffffffff16021790555082600260146101000a81548167ffffffffffffffff021916908367ffffffffffffffff16021790555080600581905550505050600160078190555082600b6000019081620001629190620007fb565b5081600b6001018190555080601281905550505050505050620008e2565b600033905090565b60008060009054906101000a900473ffffffffffffffffffffffffffffffffffffffff169050816000806101000a81548173ffffffffffffffffffffffffffffffffffffffff021916908373ffffffffffffffffffffffffffffffffffffffff1602179055508173ffffffffffffffffffffffffffffffffffffffff168173ffffffffffffffffffffffffffffffffffffffff167f8be0079c531659141344cd1fd0a4f28419497f9722a3daafe3b4186f6b6457e060405160405180910390a35050565b6000604051905090565b600080fd5b600080fd5b600067ffffffffffffffff82169050919050565b6200027f8162000260565b81146200028b57600080fd5b50565b6000815190506200029f8162000274565b92915050565b600073ffffffffffffffffffffffffffffffffffffffff82169050919050565b6000620002d282620002a5565b9050919050565b620002e481620002c5565b8114620002f057600080fd5b50565b6000815190506200030481620002d9565b92915050565b6000819050919050565b6200031f816200030a565b81146200032b57600080fd5b50565b6000815190506200033f8162000314565b92915050565b600080fd5b600080fd5b6000601f19601f8301169050919050565b7f4e487b7100000000000000000000000000000000000000000000000000000000600052604160045260246000fd5b6200039a826200034f565b810181811067ffffffffffffffff82111715620003bc57620003bb62000360565b5b80604052505050565b6000620003d16200024c565b9050620003df82826200038f565b919050565b600067ffffffffffffffff82111562000402576200040162000360565b5b6200040d826200034f565b9050602081019050919050565b60005b838110156200043a5780820151818401526020810190506200041d565b60008484015250505050565b60006200045d6200045784620003e4565b620003c5565b9050828152602081018484840111156200047c576200047b6200034a565b5b620004898482856200041a565b509392505050565b600082601f830112620004a957620004a862000345565b5b8151620004bb84826020860162000446565b91505092915050565b6000819050919050565b620004d981620004c4565b8114620004e557600080fd5b50565b600081519050620004f981620004ce565b92915050565b60008060008060008060c087890312156200051f576200051e62000256565b5b60006200052f89828a016200028e565b96505060206200054289828a01620002f3565b95505060406200055589828a016200032e565b945050606087015167ffffffffffffffff8111156200057957620005786200025b565b5b6200058789828a0162000491565b93505060806200059a89828a01620004e8565b92505060a0620005ad89828a01620004e8565b9150509295509295509295565b600081519050919050565b7f4e487b7100000000000000000000000000000000000000000000000000000000600052602260045260246000fd5b600060028204905060018216806200060d57607f821691505b602082108103620006235762000622620005c5565b5b50919050565b60008190508160005260206000209050919050565b60006020601f8301049050919050565b600082821b905092915050565b6000600883026200068d7fffffffffffffffffffffffffffffffffffffffffffffffffffffffffffffffff826200064e565b6200069986836200064e565b95508019841693508086168417925050509392505050565b6000819050919050565b6000620006dc620006d6620006d084620004c4565b620006b1565b620004c4565b9050919050565b6000819050919050565b620006f883620006bb565b620007106200070782620006e3565b8484546200065b565b825550505050565b600090565b6200072762000718565b62000734818484620006ed565b505050565b5b818110156200075c57620007506000826200071d565b6001810190506200073a565b5050565b601f821115620007ab57620007758162000629565b62000780846200063e565b8101602085101562000790578190505b620007a86200079f856200063e565b83018262000739565b50505b505050565b600082821c905092915050565b6000620007d060001984600802620007b0565b1980831691505092915050565b6000620007eb8383620007bd565b9150826002028217905092915050565b6200080682620005ba565b67ffffffffffffffff81111562000822576200082162000360565b5b6200082e8254620005f4565b6200083b82828562000760565b600060209050601f8311600181146200087357600084156200085e578287015190505b6200086a8582620007dd565b865550620008da565b601f198416620008838662000629565b60005b82811015620008ad5784890151825560018201915060208501945060208101905062000886565b86831015620008cd5784890151620008c9601f891682620007bd565b8355505b6001600288020188555050505b505050505050565b608051612b99620009056000396000818161031a015261036e0152612b996000f3fe6080604052600436106100dd5760003560e01c8063a168fa891161007f578063ddca3f4311610059578063ddca3f431461028f578063edca914c146102ba578063f2fde38b146102c4578063fc2a88c3146102ed576100dd565b8063a168fa89146101e1578063ba13a5721461021f578063d8a4676f14610251576100dd565b80635e202d23116100bb5780635e202d2314610139578063715018a6146101625780638796ba8c146101795780638da5cb5b146101b6576100dd565b80631fe543e3146100e2578063456c28921461010b5780634e71d92d14610122575b600080fd5b3480156100ee57600080fd5b50610109600480360381019061010491906118d5565b610318565b005b34801561011757600080fd5b506101206103d8565b005b34801561012e57600080fd5b50610137610466565b005b34801561014557600080fd5b50610160600480360381019061015b91906119e6565b61098f565b005b34801561016e57600080fd5b506101776109c0565b005b34801561018557600080fd5b506101a0600480360381019061019b9190611a55565b6109d4565b6040516101ad9190611a91565b60405180910390f35b3480156101c257600080fd5b506101cb6109f8565b6040516101d89190611aed565b60405180910390f35b3480156101ed57600080fd5b5061020860048036038101906102039190611a55565b610a21565b604051610216929190611b23565b60405180910390f35b34801561022b57600080fd5b50610234610a5f565b604051610248989796959493929190611bf6565b60405180910390f35b34801561025d57600080fd5b5061027860048036038101906102739190611a55565b610b6b565b604051610286929190611d2a565b60405180910390f35b34801561029b57600080fd5b506102a4610c96565b6040516102b19190611a91565b60405180910390f35b6102c2610c9c565b005b3480156102d057600080fd5b506102eb60048036038101906102e69190611d86565b610f77565b005b3480156102f957600080fd5b50610302610ffa565b60405161030f9190611a91565b60405180910390f35b7f000000000000000000000000000000000000000000000000000000000000000073ffffffffffffffffffffffffffffffffffffffff163373ffffffffffffffffffffffffffffffffffffffff16146103ca57337f00000000000000000000000000000000000000000000000000000000000000006040517f1cf993f40000000000000000000000000000000000000000000000000000000081526004016103c1929190611db3565b60405180910390fd5b6103d48282611000565b5050565b6103e06110ea565b600b60040160009054906101000a900460ff1615610433576040517f08c379a000000000000000000000000000000000000000000000000000000000815260040161042a90611e28565b60405180910390fd5b6001600b60040160006101000a81548160ff02191690831515021790555061045b6001611168565b600b60050181905550565b61046e61139f565b600b60060160149054906101000a900460ff16156104c1576040517f08c379a00000000000000000000000000000000000000000000000000000000081526004016104b890611eba565b60405180910390fd5b600b60040160009054906101000a900460ff16610513576040517f08c379a000000000000000000000000000000000000000000000000000000000815260040161050a90611f4c565b60405180910390fd5b600073ffffffffffffffffffffffffffffffffffffffff16600b60060160009054906101000a900473ffffffffffffffffffffffffffffffffffffffff1673ffffffffffffffffffffffffffffffffffffffff16036105a7576040517f08c379a000000000000000000000000000000000000000000000000000000000815260040161059e90611fde565b60405180910390fd5b60006105b3600a6113ee565b90506008600082815260200190815260200160002060003373ffffffffffffffffffffffffffffffffffffffff1673ffffffffffffffffffffffffffffffffffffffff16815260200190815260200160002060000160009054906101000a900460ff16610655576040517f08c379a000000000000000000000000000000000000000000000000000000000815260040161064c90612070565b60405180910390fd5b6008600082815260200190815260200160002060003373ffffffffffffffffffffffffffffffffffffffff1673ffffffffffffffffffffffffffffffffffffffff16815260200190815260200160002060000160019054906101000a900460ff16156106f6576040517f08c379a00000000000000000000000000000000000000000000000000000000081526004016106ed90612102565b60405180910390fd5b3373ffffffffffffffffffffffffffffffffffffffff16600b60060160009054906101000a900473ffffffffffffffffffffffffffffffffffffffff1673ffffffffffffffffffffffffffffffffffffffff1614610789576040517f08c379a00000000000000000000000000000000000000000000000000000000081526004016107809061216e565b60405180910390fd5b6001600b60060160146101000a81548160ff02191690831515021790555060006008600083815260200190815260200160002060003373ffffffffffffffffffffffffffffffffffffffff1673ffffffffffffffffffffffffffffffffffffffff16815260200190815260200160002060000160006101000a81548160ff02191690831515021790555060016008600083815260200190815260200160002060003373ffffffffffffffffffffffffffffffffffffffff1673ffffffffffffffffffffffffffffffffffffffff16815260200190815260200160002060000160016101000a81548160ff021916908315150217905550600061088f600b600301546113fc565b9050600081600b600301546108a491906121bd565b90506108ae61141f565b6108ed576040517f08c379a00000000000000000000000000000000000000000000000000000000081526004016108e49061223d565b60405180910390fd5b6108f56109f8565b73ffffffffffffffffffffffffffffffffffffffff166108fc839081150290604051600060405180830381858888f1935050505015801561093a573d6000803e3d6000fd5b503373ffffffffffffffffffffffffffffffffffffffff166108fc829081150290604051600060405180830381858888f19350505050158015610981573d6000803e3d6000fd5b5050505061098d6114d6565b565b6109976110ea565b82600b60000190816109a99190612469565b5081600b6001018190555080601281905550505050565b6109c86110ea565b6109d260006114e0565b565b600381815481106109e457600080fd5b906000526020600020016000915090505481565b60008060009054906101000a900473ffffffffffffffffffffffffffffffffffffffff16905090565b60016020528060005260406000206000915090508060000160009054906101000a900460ff16908060000160019054906101000a900460ff16905082565b600b806000018054610a709061228c565b80601f0160208091040260200160405190810160405280929190818152602001828054610a9c9061228c565b8015610ae95780601f10610abe57610100808354040283529160200191610ae9565b820191906000526020600020905b815481529060010190602001808311610acc57829003601f168201915b50505050509080600101549080600201604051806020016040529081600082015481525050908060030154908060040160009054906101000a900460ff16908060050154908060060160009054906101000a900473ffffffffffffffffffffffffffffffffffffffff16908060060160149054906101000a900460ff16905088565b600060606001600084815260200190815260200160002060000160019054906101000a900460ff16610bd2576040517f08c379a0000000000000000000000000000000000000000000000000000000008152600401610bc990612587565b60405180910390fd5b6000600160008581526020019081526020016000206040518060600160405290816000820160009054906101000a900460ff161515151581526020016000820160019054906101000a900460ff1615151515815260200160018201805480602002602001604051908101604052809291908181526020018280548015610c7757602002820191906000526020600020905b815481526020019060010190808311610c63575b5050505050815250509050806000015181604001519250925050915091565b60125481565b610ca461139f565b600b60040160009054906101000a900460ff1615610cf7576040517f08c379a0000000000000000000000000000000000000000000000000000000008152600401610cee90612619565b60405180910390fd5b34600b6001015414610d3e576040517f08c379a0000000000000000000000000000000000000000000000000000000008152600401610d35906126ab565b60405180910390fd5b60086000610d4c600a6113ee565b815260200190815260200160002060003373ffffffffffffffffffffffffffffffffffffffff1673ffffffffffffffffffffffffffffffffffffffff16815260200190815260200160002060000160009054906101000a900460ff1615610de8576040517f08c379a0000000000000000000000000000000000000000000000000000000008152600401610ddf9061273d565b60405180910390fd5b6000610df4600a6113ee565b90506000610e05600b6002016113ee565b9050610e14600b6002016115a4565b60016008600084815260200190815260200160002060003373ffffffffffffffffffffffffffffffffffffffff1673ffffffffffffffffffffffffffffffffffffffff16815260200190815260200160002060000160006101000a81548160ff02191690831515021790555060006008600084815260200190815260200160002060003373ffffffffffffffffffffffffffffffffffffffff1673ffffffffffffffffffffffffffffffffffffffff16815260200190815260200160002060000160016101000a81548160ff0219169083151502179055503360096000848152602001908152602001600020600083815260200190815260200160002060006101000a81548173ffffffffffffffffffffffffffffffffffffffff021916908373ffffffffffffffffffffffffffffffffffffffff16021790555034600b6003016000828254610f64919061275d565b925050819055505050610f756114d6565b565b610f7f6110ea565b600073ffffffffffffffffffffffffffffffffffffffff168173ffffffffffffffffffffffffffffffffffffffff1603610fee576040517f08c379a0000000000000000000000000000000000000000000000000000000008152600401610fe590612803565b60405180910390fd5b610ff7816114e0565b50565b60045481565b61100a82826115ba565b6000611016600a6113ee565b90506000611027600b6002016113ee565b9050600b6005015484036110e457600960008381526020019081526020016000206000828560008151811061105f5761105e612823565b5b60200260200101516110719190612881565b815260200190815260200160002060009054906101000a900473ffffffffffffffffffffffffffffffffffffffff16600b60060160006101000a81548173ffffffffffffffffffffffffffffffffffffffff021916908373ffffffffffffffffffffffffffffffffffffffff1602179055505b50505050565b6110f26116b3565b73ffffffffffffffffffffffffffffffffffffffff166111106109f8565b73ffffffffffffffffffffffffffffffffffffffff1614611166576040517f08c379a000000000000000000000000000000000000000000000000000000000815260040161115d906128fe565b60405180910390fd5b565b60006111726110ea565b600260009054906101000a900473ffffffffffffffffffffffffffffffffffffffff1673ffffffffffffffffffffffffffffffffffffffff16635d3b1d30600554600260149054906101000a900467ffffffffffffffff16600660049054906101000a900461ffff16600660009054906101000a900463ffffffff16876040518663ffffffff1660e01b815260040161120f959493929190612996565b6020604051808303816000875af115801561122e573d6000803e3d6000fd5b505050506040513d601f19601f8201168201806040525081019061125291906129fe565b90506040518060600160405280600015158152602001600115158152602001600067ffffffffffffffff81111561128c5761128b611792565b5b6040519080825280602002602001820160405280156112ba5781602001602082028036833780820191505090505b508152506001600083815260200190815260200160002060008201518160000160006101000a81548160ff02191690831515021790555060208201518160000160016101000a81548160ff021916908315150217905550604082015181600101908051906020019061132d9291906116c8565b509050506003819080600181540180825580915050600190039060005260206000200160009091909190915055806004819055507fcc58b13ad3eab50626c6a6300b1d139cd6ebb1688a7cced9461c2f7e762665ee8183604051611392929190612a2b565b60405180910390a1919050565b6002600754036113e4576040517f08c379a00000000000000000000000000000000000000000000000000000000081526004016113db90612aa0565b60405180910390fd5b6002600781905550565b600081600001549050919050565b600060646012548361140e9190612ac0565b6114189190612b02565b9050919050565b600061142b600a6115a4565b6000600b600301819055506000600b60060160146101000a81548160ff0219169083151502179055506000600b60040160006101000a81548160ff0219169083151502179055506000600b600501819055506000600b60060160006101000a81548173ffffffffffffffffffffffffffffffffffffffff021916908373ffffffffffffffffffffffffffffffffffffffff1602179055506114cf600b6002016116bb565b6001905090565b6001600781905550565b60008060009054906101000a900473ffffffffffffffffffffffffffffffffffffffff169050816000806101000a81548173ffffffffffffffffffffffffffffffffffffffff021916908373ffffffffffffffffffffffffffffffffffffffff1602179055508173ffffffffffffffffffffffffffffffffffffffff168173ffffffffffffffffffffffffffffffffffffffff167f8be0079c531659141344cd1fd0a4f28419497f9722a3daafe3b4186f6b6457e060405160405180910390a35050565b6001816000016000828254019250508190555050565b6001600083815260200190815260200160002060000160019054906101000a900460ff1661161d576040517f08c379a000000000000000000000000000000000000000000000000000000000815260040161161490612587565b60405180910390fd5b600180600084815260200190815260200160002060000160006101000a81548160ff021916908315150217905550806001600084815260200190815260200160002060010190805190602001906116759291906116c8565b507ffe2e2d779dba245964d4e3ef9b994be63856fd568bf7d3ca9e224755cb1bd54d82826040516116a7929190612b33565b60405180910390a15050565b600033905090565b6000816000018190555050565b828054828255906000526020600020908101928215611704579160200282015b828111156117035782518255916020019190600101906116e8565b5b5090506117119190611715565b5090565b5b8082111561172e576000816000905550600101611716565b5090565b6000604051905090565b600080fd5b600080fd5b6000819050919050565b61175981611746565b811461176457600080fd5b50565b60008135905061177681611750565b92915050565b600080fd5b6000601f19601f8301169050919050565b7f4e487b7100000000000000000000000000000000000000000000000000000000600052604160045260246000fd5b6117ca82611781565b810181811067ffffffffffffffff821117156117e9576117e8611792565b5b80604052505050565b60006117fc611732565b905061180882826117c1565b919050565b600067ffffffffffffffff82111561182857611827611792565b5b602082029050602081019050919050565b600080fd5b600061185161184c8461180d565b6117f2565b9050808382526020820190506020840283018581111561187457611873611839565b5b835b8181101561189d57806118898882611767565b845260208401935050602081019050611876565b5050509392505050565b600082601f8301126118bc576118bb61177c565b5b81356118cc84826020860161183e565b91505092915050565b600080604083850312156118ec576118eb61173c565b5b60006118fa85828601611767565b925050602083013567ffffffffffffffff81111561191b5761191a611741565b5b611927858286016118a7565b9150509250929050565b600080fd5b600067ffffffffffffffff82111561195157611950611792565b5b61195a82611781565b9050602081019050919050565b82818337600083830152505050565b600061198961198484611936565b6117f2565b9050828152602081018484840111156119a5576119a4611931565b5b6119b0848285611967565b509392505050565b600082601f8301126119cd576119cc61177c565b5b81356119dd848260208601611976565b91505092915050565b6000806000606084860312156119ff576119fe61173c565b5b600084013567ffffffffffffffff811115611a1d57611a1c611741565b5b611a29868287016119b8565b9350506020611a3a86828701611767565b9250506040611a4b86828701611767565b9150509250925092565b600060208284031215611a6b57611a6a61173c565b5b6000611a7984828501611767565b91505092915050565b611a8b81611746565b82525050565b6000602082019050611aa66000830184611a82565b92915050565b600073ffffffffffffffffffffffffffffffffffffffff82169050919050565b6000611ad782611aac565b9050919050565b611ae781611acc565b82525050565b6000602082019050611b026000830184611ade565b92915050565b60008115159050919050565b611b1d81611b08565b82525050565b6000604082019050611b386000830185611b14565b611b456020830184611b14565b9392505050565b600081519050919050565b600082825260208201905092915050565b60005b83811015611b86578082015181840152602081019050611b6b565b60008484015250505050565b6000611b9d82611b4c565b611ba78185611b57565b9350611bb7818560208601611b68565b611bc081611781565b840191505092915050565b611bd481611746565b82525050565b602082016000820151611bf06000850182611bcb565b50505050565b6000610100820190508181036000830152611c11818b611b92565b9050611c20602083018a611a82565b611c2d6040830189611bda565b611c3a6060830188611a82565b611c476080830187611b14565b611c5460a0830186611a82565b611c6160c0830185611ade565b611c6e60e0830184611b14565b9998505050505050505050565b600081519050919050565b600082825260208201905092915050565b6000819050602082019050919050565b6000611cb38383611bcb565b60208301905092915050565b6000602082019050919050565b6000611cd782611c7b565b611ce18185611c86565b9350611cec83611c97565b8060005b83811015611d1d578151611d048882611ca7565b9750611d0f83611cbf565b925050600181019050611cf0565b5085935050505092915050565b6000604082019050611d3f6000830185611b14565b8181036020830152611d518184611ccc565b90509392505050565b611d6381611acc565b8114611d6e57600080fd5b50565b600081359050611d8081611d5a565b92915050565b600060208284031215611d9c57611d9b61173c565b5b6000611daa84828501611d71565b91505092915050565b6000604082019050611dc86000830185611ade565b611dd56020830184611ade565b9392505050565b7f4c6f747465727920616c72656164792066696e616c697a65642e000000000000600082015250565b6000611e12601a83611b57565b9150611e1d82611ddc565b602082019050919050565b60006020820190508181036000830152611e4181611e05565b9050919050565b7f5468652077696e6e657220616c726561647920636c61696d656420697473207060008201527f72697a652e000000000000000000000000000000000000000000000000000000602082015250565b6000611ea4602583611b57565b9150611eaf82611e48565b604082019050919050565b60006020820190508181036000830152611ed381611e97565b9050919050565b7f54686973206c6f74746572792069736e27742066696e616c697a65642079657460008201527f2e00000000000000000000000000000000000000000000000000000000000000602082015250565b6000611f36602183611b57565b9150611f4182611eda565b604082019050919050565b60006020820190508181036000830152611f6581611f29565b9050919050565b7f54686973206c6f7474657279206469646e27742067657420612077696e6e657260008201527f207965742e000000000000000000000000000000000000000000000000000000602082015250565b6000611fc8602583611b57565b9150611fd382611f6c565b604082019050919050565b60006020820190508181036000830152611ff781611fbb565b9050919050565b7f596f7520646f6e74206861766520616e79207469636b657420746f20636c616960008201527f6d20686572652e00000000000000000000000000000000000000000000000000602082015250565b600061205a602783611b57565b915061206582611ffe565b604082019050919050565b600060208201905081810360008301526120898161204d565b9050919050565b7f596f75206861766520616c7265616420636c61696d656420796f75722070726960008201527f7a652e0000000000000000000000000000000000000000000000000000000000602082015250565b60006120ec602383611b57565b91506120f782612090565b604082019050919050565b6000602082019050818103600083015261211b816120df565b9050919050565b7f596f75277265206e6f74207468652077696e6e65722e00000000000000000000600082015250565b6000612158601683611b57565b915061216382612122565b602082019050919050565b600060208201905081810360008301526121878161214b565b9050919050565b7f4e487b7100000000000000000000000000000000000000000000000000000000600052601160045260246000fd5b60006121c882611746565b91506121d383611746565b92508282039050818111156121eb576121ea61218e565b5b92915050565b7f4c6f7474657279206e6565647320746f20626520726573657465642e00000000600082015250565b6000612227601c83611b57565b9150612232826121f1565b602082019050919050565b600060208201905081810360008301526122568161221a565b9050919050565b7f4e487b7100000000000000000000000000000000000000000000000000000000600052602260045260246000fd5b600060028204905060018216806122a457607f821691505b6020821081036122b7576122b661225d565b5b50919050565b60008190508160005260206000209050919050565b60006020601f8301049050919050565b600082821b905092915050565b60006008830261231f7fffffffffffffffffffffffffffffffffffffffffffffffffffffffffffffffff826122e2565b61232986836122e2565b95508019841693508086168417925050509392505050565b6000819050919050565b600061236661236161235c84611746565b612341565b611746565b9050919050565b6000819050919050565b6123808361234b565b61239461238c8261236d565b8484546122ef565b825550505050565b600090565b6123a961239c565b6123b4818484612377565b505050565b5b818110156123d8576123cd6000826123a1565b6001810190506123ba565b5050565b601f82111561241d576123ee816122bd565b6123f7846122d2565b81016020851015612406578190505b61241a612412856122d2565b8301826123b9565b50505b505050565b600082821c905092915050565b600061244060001984600802612422565b1980831691505092915050565b6000612459838361242f565b9150826002028217905092915050565b61247282611b4c565b67ffffffffffffffff81111561248b5761248a611792565b5b612495825461228c565b6124a08282856123dc565b600060209050601f8311600181146124d357600084156124c1578287015190505b6124cb858261244d565b865550612533565b601f1984166124e1866122bd565b60005b82811015612509578489015182556001820191506020850194506020810190506124e4565b868310156125265784890151612522601f89168261242f565b8355505b6001600288020188555050505b505050505050565b7f72657175657374206e6f7420666f756e64000000000000000000000000000000600082015250565b6000612571601183611b57565b915061257c8261253b565b602082019050919050565b600060208201905081810360008301526125a081612564565b9050919050565b7f54686973206c6f74746572792068617320616c72656164792066696e616c697a60008201527f65642c207761697420666f7220726573756c7473210000000000000000000000602082015250565b6000612603603583611b57565b915061260e826125a7565b604082019050919050565b60006020820190508181036000830152612632816125f6565b9050919050565b7f596f75206e65656420746f20706179207468652065786163746c79207469636b60008201527f65742070726963652e0000000000000000000000000000000000000000000000602082015250565b6000612695602983611b57565b91506126a082612639565b604082019050919050565b600060208201905081810360008301526126c481612688565b9050919050565b7f54686973206164647265737320616c7265616479206275792061207469636b6560008201527f742e000000000000000000000000000000000000000000000000000000000000602082015250565b6000612727602283611b57565b9150612732826126cb565b604082019050919050565b600060208201905081810360008301526127568161271a565b9050919050565b600061276882611746565b915061277383611746565b925082820190508082111561278b5761278a61218e565b5b92915050565b7f4f776e61626c653a206e6577206f776e657220697320746865207a65726f206160008201527f6464726573730000000000000000000000000000000000000000000000000000602082015250565b60006127ed602683611b57565b91506127f882612791565b604082019050919050565b6000602082019050818103600083015261281c816127e0565b9050919050565b7f4e487b7100000000000000000000000000000000000000000000000000000000600052603260045260246000fd5b7f4e487b7100000000000000000000000000000000000000000000000000000000600052601260045260246000fd5b600061288c82611746565b915061289783611746565b9250826128a7576128a6612852565b5b828206905092915050565b7f4f776e61626c653a2063616c6c6572206973206e6f7420746865206f776e6572600082015250565b60006128e8602083611b57565b91506128f3826128b2565b602082019050919050565b60006020820190508181036000830152612917816128db565b9050919050565b6000819050919050565b6129318161291e565b82525050565b600067ffffffffffffffff82169050919050565b61295481612937565b82525050565b600061ffff82169050919050565b6129718161295a565b82525050565b600063ffffffff82169050919050565b61299081612977565b82525050565b600060a0820190506129ab6000830188612928565b6129b8602083018761294b565b6129c56040830186612968565b6129d26060830185612987565b6129df6080830184612987565b9695505050505050565b6000815190506129f881611750565b92915050565b600060208284031215612a1457612a1361173c565b5b6000612a22848285016129e9565b91505092915050565b6000604082019050612a406000830185611a82565b612a4d6020830184612987565b9392505050565b7f5265656e7472616e637947756172643a207265656e7472616e742063616c6c00600082015250565b6000612a8a601f83611b57565b9150612a9582612a54565b602082019050919050565b60006020820190508181036000830152612ab981612a7d565b9050919050565b6000612acb82611746565b9150612ad683611746565b9250828202612ae481611746565b91508282048414831517612afb57612afa61218e565b5b5092915050565b6000612b0d82611746565b9150612b1883611746565b925082612b2857612b27612852565b5b828204905092915050565b6000604082019050612b486000830185611a82565b8181036020830152612b5a8184611ccc565b9050939250505056fea264697066735822122063d71725bea6a8ddcaf6da48f1e037c5358b54a143d12088e2ac4b2ee479bc8364736f6c63430008110033",
  "immutableReferences": {
    "10": [
      {
        "length": 32,
        "start": 794
      },
      {
        "length": 32,
        "start": 878
      }
    ]
  },
  "source": "// SPDX-License-Identifier: MIT\r\npragma solidity ^0.8.17;\r\n\r\nimport \"@chainlink/contracts/src/v0.8/interfaces/VRFCoordinatorV2Interface.sol\";\r\nimport \"@chainlink/contracts/src/v0.8/VRFConsumerBaseV2.sol\";\r\n\r\nimport \"@openzeppelin/contracts/access/Ownable.sol\";\r\nimport \"@openzeppelin/contracts/utils/Counters.sol\";\r\nimport \"@openzeppelin/contracts/security/ReentrancyGuard.sol\";\r\n\r\nimport \"./VRFV2Consumer.sol\";\r\n\r\ncontract Lottery is Ownable, VRFV2Consumer, ReentrancyGuard {\r\n    using Counters for Counters.Counter;\r\n\r\n    struct User {\r\n        bool hasTicket;\r\n        bool claimed;\r\n    }\r\n\r\n    struct LotteryStruct {\r\n        string name;\r\n        uint256 ticketPrice;\r\n        Counters.Counter ticketsCount;\r\n        uint256 balance;\r\n        bool finalized;\r\n        uint256 indexChainLink;\r\n        address winner;\r\n        bool claimed;\r\n    }\r\n\r\n    mapping(uint256 => mapping(address => User)) ticketOwners;\r\n    mapping(uint256 => mapping(uint256 => address)) tickets;\r\n\r\n    Counters.Counter private lotteryId;\r\n    LotteryStruct public lottery;\r\n    uint256 public fee;\r\n\r\n    constructor(\r\n        uint64 _subscriptionId,\r\n        address _cordinatorAddress,\r\n        bytes32 _keyHash,\r\n        string memory _name,\r\n        uint256 _ticketPrice,\r\n        uint256 _fee\r\n    ) VRFV2Consumer(_subscriptionId, _cordinatorAddress, _keyHash) {\r\n        lottery.name = _name;\r\n        lottery.ticketPrice = _ticketPrice;\r\n        fee = _fee;\r\n    }\r\n\r\n    function buyTicket() external payable nonReentrant {\r\n        require(\r\n            !lottery.finalized,\r\n            \"This lottery has already finalized, wait for results!\"\r\n        );\r\n        require(\r\n            lottery.ticketPrice == msg.value,\r\n            \"You need to pay the exactly ticket price.\"\r\n        );\r\n        require(\r\n            !ticketOwners[lotteryId.current()][msg.sender].hasTicket,\r\n            \"This address already buy a ticket.\"\r\n        );\r\n\r\n        uint256 currentLottery = lotteryId.current();\r\n        uint256 currentLotteryPosition = lottery.ticketsCount.current();\r\n        lottery.ticketsCount.increment();\r\n\r\n        ticketOwners[currentLottery][msg.sender].hasTicket = true;\r\n        ticketOwners[currentLottery][msg.sender].claimed = false;\r\n        tickets[currentLottery][currentLotteryPosition] = msg.sender;\r\n\r\n        lottery.balance += msg.value;\r\n    }\r\n\r\n    function finalizeLottery() external onlyOwner {\r\n        require(!lottery.finalized, \"Lottery already finalized.\");\r\n        lottery.finalized = true;\r\n\r\n        lottery.indexChainLink = requestRandomWords(1);\r\n    }\r\n\r\n    function fulfillRandomWords(\r\n        uint256 _requestId,\r\n        uint256[] memory _randomWords\r\n    ) internal override {\r\n        super.fulfillRandomWords(_requestId, _randomWords);\r\n        uint256 currentLottery = lotteryId.current();\r\n        uint256 currentLotteryPosition = lottery.ticketsCount.current();\r\n        if (_requestId == lottery.indexChainLink) {\r\n            lottery.winner = tickets[currentLottery][\r\n                _randomWords[0] % currentLotteryPosition\r\n            ];\r\n        }\r\n    }\r\n\r\n    function claim() external nonReentrant {\r\n        require(!lottery.claimed, \"The winner already claimed its prize.\");\r\n        require(lottery.finalized, \"This lottery isn't finalized yet.\");\r\n        require(\r\n            lottery.winner != address(0),\r\n            \"This lottery didn't get a winner yet.\"\r\n        );\r\n\r\n        uint256 currentLottery = lotteryId.current();\r\n\r\n        require(\r\n            ticketOwners[currentLottery][msg.sender].hasTicket,\r\n            \"You dont have any ticket to claim here.\"\r\n        );\r\n        require(\r\n            !ticketOwners[currentLottery][msg.sender].claimed,\r\n            \"You have alread claimed your prize.\"\r\n        );\r\n        require(lottery.winner == msg.sender, \"You're not the winner.\");\r\n        lottery.claimed = true;\r\n        ticketOwners[currentLottery][msg.sender].hasTicket = false;\r\n        ticketOwners[currentLottery][msg.sender].claimed = true;\r\n\r\n        uint256 _feeAmount = _calcFee(lottery.balance);\r\n        uint256 prize = lottery.balance - _feeAmount;\r\n\r\n        require(resetLottery(), \"Lottery needs to be reseted.\");\r\n\r\n        payable(owner()).transfer(_feeAmount);\r\n        payable(msg.sender).transfer(prize);\r\n    }\r\n\r\n    function resetLottery() private returns (bool) {\r\n        // Change the pointer to the next position.\r\n        lotteryId.increment();\r\n\r\n        // clean up variables\r\n        lottery.balance = 0;\r\n        lottery.claimed = false;\r\n        lottery.finalized = false;\r\n        lottery.indexChainLink = 0;\r\n        lottery.winner = address(0);\r\n        \r\n        lottery.ticketsCount.reset();\r\n\r\n        return true;       \r\n    }\r\n\r\n    function _calcFee(uint256 amount) private view returns (uint256) {\r\n        return (amount * fee) / 100;\r\n    }\r\n\r\n    function setProperties(string memory _name, uint256 _ticketPrice, uint256 _fee)\r\n        external\r\n        onlyOwner\r\n    {\r\n        lottery.name = _name;\r\n        lottery.ticketPrice = _ticketPrice;\r\n        fee = _fee;\r\n    }\r\n}\r\n",
  "sourcePath": "C:\\lucas_blockchain\\Projetos\\scamados_loteria\\Onchain\\contracts\\Lottery.sol",
  "compiler": {
    "name": "solc",
    "version": "0.8.17+commit.8df45f5f.Emscripten.clang"
  },
  "schemaVersion": "3.4.11",
  "updatedAt": "2023-02-26T23:36:20.522Z",
  "networkType": "ethereum",
  "devdoc": {
    "kind": "dev",
    "methods": {
      "owner()": {
        "details": "Returns the address of the current owner."
      },
      "renounceOwnership()": {
        "details": "Leaves the contract without owner. It will not be possible to call `onlyOwner` functions anymore. Can only be called by the current owner. NOTE: Renouncing ownership will leave the contract without an owner, thereby removing any functionality that is only available to the owner."
      },
      "transferOwnership(address)": {
        "details": "Transfers ownership of the contract to a new account (`newOwner`). Can only be called by the current owner."
      }
    },
    "version": 1
  },
  "userdoc": {
    "kind": "user",
    "methods": {},
    "version": 1
  }
}